:020000040800F2
:10000000D8D100206D020008891000088B1000086C
:100010008F100008931000089710000800000000DF
:10002000000000000000000000000000AD0100081A
:100030009B1000080000000009020008B1D700086A
:10004000870200088702000887020008870200086C
:10005000870200088702000887020008870200085C
:10006000870200088702000887020008870200084C
:10007000870200088702000887020008870200083C
:1000800087020008870200088702000800000000BD
:1000900000000000000000000000000087020008CF
:1000A00087020008870200089D10000887020008E8
:1000B00087020008870200088702000887020008FC
:1000C00087020008870200088702000887020008EC
:1000D000870200088702000887020008000000006D
:1000E000870200088702000887020008000000005D
:1000F000000000000000000000000000870200086F
:10010000000000008702000887020008870200083C
:1001100000000000000000000000000000000000DF
:10012000870200088702000887020008870200088B
:10013000870200080000000000000000000000002E
:10014000000000000000000000000000AD100008EA
:10015000870200088702000887020008870200085B
:10016000870200088702000800000000000000006D
:10017000000000000000000000000000000000007F
:1001800000000000870200080000000000000000DE
:100190008702000887020008DFF80CD00EF00CFC84
:1001A000004800473B030008D8D100202C4B1968B9
:1001B0000868B0E8F04F80F30988BFF36F8F4FF005
:1001C000000080F3118870470000000008480068B4
:1001D000006880F308884FF0000080F3148862B64E
:1001E00061B6BFF34F8FBFF36F8F00DF00BF00BF5B
:1001F00008ED00E0DFF80C00016841F470010160D7
:10020000704700BF88ED00E0EFF30980BFF36F8F08
:10021000134B1A681EF0100F08BF20ED108A20E95A
:10022000F04F106009B44FF0500080F31188BFF315
:100230004F8FBFF36F8F0BF059FC4FF0000080F32E
:10024000118809BC19680868B0E8F04F1EF0100F5B
:1002500008BFB0EC108A80F30988BFF36F8F704736
:10026000FC800020EFF305807047000006488047BF
:1002700006480047FEE7FEE7FEE7FEE7FEE7FEE78B
:10028000FEE7FEE7FEE7FEE7F1A10008990100089E
:10029000704700B593B0302107A80EF063FB14211E
:1002A00002A80EF05FFB00BF002001903D480068EF
:1002B00040F080503B4908600846006800F08050DC
:1002C000019000BF00BF00BF0020019036480068C9
:1002D00040F44040344908600846006800F440405B
:1002E000019000BF00BF0120079000040890022089
:1002F0000D9041050E9104210F9160211091022172
:1003000011910421129107A803F018FB08B1FFF71F
:10031000BFFF0F20029002200390002004904FF4B2
:100320008050059000200690032102A803F098FD5C
:1003300008B1FFF7ADFF13B000BD04F0ACFFFFF74D
:10034000A8FF00F03BF800F09FF900F0F2F900F090
:100350002BFA00F0F1FA154805F000F900211348D6
:1003600005F0F9FC124805F0F9F80021104805F0F5
:10037000F2FC104805F0F2F800210E4805F0EBFC05
:1003800000F04AFB00F06BF80CF0E4FA00BFFEE767
:1003900010B5044608492068884201D104F0B7FF2F
:1003A00010BD0000403802400070004090840020E2
:1003B000D0840020108500200048014000B587B09F
:1003C000142102A80EF0CEFA00BF002001901E48B2
:1003D000006840F080001C4908600846006800F092
:1003E0008000019000BF00BF00BF002001900846C0
:1003F000006840F0010008600846006800F0010055
:10040000019000BF00BF00BF0020019008460068B7
:1004100040F0020008600846006800F00200019009
:1004200000BF00BF00220821084804F08EF8082011
:1004300002900120039000200490059002A9034837
:1004400003F014FF07B000BD303802400000024046
:10045000484B0360484B0B6080231360704700B526
:100460009DB01C22454916A80EF063FA002116A87B
:100470000CF088FA424908601C2240491C310FA840
:100480000EF057FA00210FA80CF07CFA3D490860E5
:100490001C223A49383108A80EF04BFA002108A86E
:1004A0000CF070FA384908601C223449543101A814
:1004B0000EF03FFA002101A80CF064FA33490860FD
:1004C0001DB000BD00F0A8FA00BF01200CF0BEFA7C
:1004D000FBE700BF08212E4804F03DF82D490978BC
:1004E000890001F135000CF0B1FAF3E700BF2A48AA
:1004F000007848B928484178012088402749097880
:100500008143264801700CE023480078012808D177
:1005100021484178012088402049097808431F4933
:1005200008701D48007804280FD11B4840781949ED
:10053000087019484078FF2807D117484078401CB8
:100540001549487001201649087064200CF07EFAA5
:10055000CDE700BF1248007838B10020104908707C
:100560000522104910480EF02FF964200CF06EFAA5
:10057000F0E700003C820020908200200CEB000895
:10058000088000200C8000201080002014800020B3
:100590000000024000800020D4800020078000205E
:1005A00006800020018000209085002010B586B0D4
:1005B0000446142101A80EF0D5F9D64920688842D6
:1005C0001DD100BF00200090D348006840F001001A
:1005D000D14908600846006800F00100009000BFA3
:1005E00000BF881501900220029000200390049023
:1005F0000120059001A9C94803F038FE42E0C8492E
:10060000206888421DD100BF00200090C2480068C9
:1006100040F00100C04908600846006800F0010091
:10062000009000BF00BF40200190022002900020F7
:10063000039004900220059001A9B84803F016FE2B
:1006400020E0B849206888421CD100BF00200090FB
:10065000B148006840F00200AF49086008460068F1
:1006600000F00200009000BF00BF40200190022077
:1006700002900020039004900220059001A9AA484E
:1006800003F0F4FD06B010BD00B591B000200F904E
:1006900010901C2108A80EF065F9202168460EF084
:1006A00061F99C48A14908600020486000219F48EA
:1006B00081604FF47A61C160002101614161816113
:1006C00005F008FB08B1FFF7E3FD00200F90109044
:1006D0000FA9964808F085FA08B1FFF7D9FD602008
:1006E00008904FF47A70099000200A900B900C90BB
:1006F0000D900E90002208A98C4806F0E1FD08B18B
:10070000FFF7C6FD00200090019002900390049036
:100710004FF400500590002007906946834808F088
:10072000A3FA08B1FFF7B4FD8048FFF73FFF11B00F
:1007300000BD00B589B00020079008901C216846D4
:100740000EF010F976487A490860002048600021D0
:10075000774881604FF47A61C16000210161816155
:1007600005F0B8FA08B1FFF793FD00200790089054
:1007700007A96F4808F035FA08B1FFF789FD602036
:10078000009040F6B83001900020029004900022C2
:100790006946674806F094FD08B1FFF779FD6448A3
:1007A000FFF704FF09B000BD00B589B00020079035
:1007B00008901C2168460EF0D5F85A485D4908603B
:1007C0000020486000215B4881604FF47A61C1607D
:1007D00000210161816105F07DFA08B1FFF758FD44
:1007E00000200790089007A9524808F0FAF908B1CC
:1007F000FFF74EFD602000904FF4FA60019000205A
:1008000002900490002269464A4806F059FD08B15A
:10081000FFF73EFD4748FFF7C9FE09B000BD38B5F8
:1008200004463C49206888421AD100BF002000904D
:1008300039481430006840F001003749143108602D
:100840000846006800F00100009000BF00BF0022D1
:1008500011461A2004F038FB1A2004F073FB2BE039
:100860002F492068884211D100BF002000902A48FB
:100870001030006840F00200274910310860084637
:10088000006800F00200009000BF15E025492068D4
:10089000884211D100BF002000901F48103000682E
:1008A00040F004001C49103108600846006800F060
:1008B0000400009000BF00BF38BD10B504461549C4
:1008C000206888420BD114481430006820F00100E1
:1008D0001149143108601A2004F044FB18E0104953
:1008E0002068884208D10C481030006820F00200CF
:1008F0000949103108600BE00A492068884207D195
:1009000005481030006820F00400034910310860E9
:1009100010BD0000000001403038024000000240DD
:1009200000040040000800400004024090840020C1
:10093000D08400201085002010B53348334908606A
:100940004FF4E1304860002130488160C1600161AE
:100950000C21416100218161C16108F0D6FB08B121
:10096000FFF796FC10BD10B586B00446142101A80F
:100970000DF0F8FF24492068884230D100BF0020E4
:1009800000902348006840F01000214908600846A4
:10099000006800F01000009000BF00BF00BF002002
:1009A00000901B481438006840F0010018491439C1
:1009B00008600846006800F00100009000BF00BF1A
:1009C0004FF4C060019002200290002003900320A9
:1009D00004900720059001A90E4803F047FC06B0DB
:1009E00010BD10B504460849206888420AD108485D
:1009F000006820F01000064908604FF4C061054807
:100A000003F00EFD10BD00000010014050850020D5
:100A1000443802400000024010B500220D490E4843
:100A20000CF026FF08B1FFF733FC0C490A480CF024
:100A300062FF08B1FFF72CFC094907480DF035FFAC
:100A400008B1FFF725FC04480CF068FF08B1FFF778
:100A50001FFC10BD188000209085002060810020C0
:100A6000D880002010B586B00446142101A80DF0EE
:100A700079FF2068B0F1A04F42D100BF0020009064
:100A8000FC48006840F00100FA4908600846006828
:100A900000F00100009000BF00BF4FF4C050019073
:100AA0000220029000200390032004900A20059069
:100AB00001A9F14803F0DAFB00BFEE48001D006811
:100AC00040F08000EB49091D086000BF0020009045
:100AD000E8481430006840F48040E649143108606A
:100AE0000846006800F48040009000BF00BF00BFCF
:100AF00000220521432004F0E7F9432004F022FA04
:100B000006B010BD10B504462068B0F1A04F0FD15B
:100B1000D848001D006820F08000D649091D0860F3
:100B20004FF4C051D44803F07BFC432004F01AFA80
:100B300010BD10B5044604F57171D4F804040CF02E
:100B40002BFF10BD70B504460D46C5EBC50304F57B
:100B5000FE7101EB8301CA682946D4F804040CF045
:100B600056FF70BD70B504460D46C5EBC50304F1D4
:100B70003C0101EB8301CA682946D4F804040CF057
:100B80008FFF70BD10B50446D4F804040DF041F891
:100B900010BD70B504460125E068022801D0FFF7BA
:100BA00077FB2946D4F804040DF01AF8D4F80404AD
:100BB0000CF0E9FF70BD10B50446D4F804040DF044
:100BC00013F82068D0F8000E40F001002168C1F849
:100BD000000E206A28B1A948006840F00600A74925
:100BE000086010BD10B50446D4F804040DF006F8F2
:100BF00010BD70B504460D462946D4F804040DF026
:100C00001CF870BD70B504460D462946D4F804049E
:100C10000DF010F870BD10B50446D4F804040DF0C2
:100C20000FF810BD10B50446D4F804040DF00BF80D
:100C300010BD10B50446207800282AD19048C0F88D
:100C40000444C4F8C4024FF0A0408D490860042059
:100C5000486002218A48C16000210161022181614E
:100C60000021C16101624162C162016300F0ADFA1D
:100C700008B1FFF70DFB8021814801F0C7F9402240
:100C800000217F4801F09BF9802201217C4801F07E
:100C900096F9002010BD0146002031B1012906D08F
:100CA000022906D0032908D105E0002007E003202F
:100CB00005E0012003E0032001E0032000BF00BFA6
:100CC000704770B5044600250026D4F8C40200F031
:100CD00055FB05462846FFF7DEFF0646304670BD49
:100CE00070B5044600250026D4F8C40200F059FB74
:100CF00005462846FFF7CFFF0646304670BD70B563
:100D0000044600250026D4F8C40200F012FB054674
:100D10002846FFF7C0FF0646304670BD2DE9F04774
:100D200004460F4615461E464FF00008C1462B46A6
:100D300032463946D4F8C40200F0ADFF8046404642
:100D4000FFF7A9FF81464846BDE8F0872DE9F0414D
:100D500004460D46002600272946D4F8C40200F0B8
:100D6000E0FF06463046FFF796FF07463846BDE8E7
:100D7000F0812DE9F04104460D4600260027294662
:100D8000D4F8C40201F0E9F806463046FFF783FFC5
:100D900007463846BDE8F0812DE9F04104460D468E
:100DA000002600272946D4F8C40201F053F806466D
:100DB0003046FFF770FF07463846BDE8F0812DE961
:100DC000F04104460D46002600272946D4F8C40207
:100DD00001F085F806463046FFF75DFF07463846C6
:100DE000BDE8F08110B50246D2F8C43201F08000AF
:100DF000802809D101F07F00C0EBC00403F13C0062
:100E000000EB8400807810BD01F07F00C0EBC004CF
:100E100003F5FE7000EB84008078F4E72DE9F041E3
:100E200004460D46002600272946D4F8C40200F0E7
:100E300017FF06463046FFF72EFF07463846BDE847
:100E4000F0812DE9F04704460D4616461F464FF047
:100E50000008C1463B4632462946D4F8C40200F099
:100E6000CCFF80464046FFF716FF81464846BDE866
:100E7000F0870000303802400000024010ED00E032
:100E8000608800202DE9F04704460D4616461F46AF
:100E90004FF00008C1463B4632462946D4F8C4020A
:100EA00000F074FF80464046FFF7F5FE8146484655
:100EB000BDE8F08770B504460D462946D4F8C40253
:100EC00000F090FF70BD10B50446204604F044FACF
:100ED00010BD0000024612200880414870470246BB
:100EE000042008803F48704770B505460C462DB970
:100EF00022463D493DA00DF0C5FA04E022463A499C
:100F00003AA00DF0BFFA384870BD70B505460C46E2
:100F1000224635493DA00DF0B5FA334870BD30B5D5
:100F20000B46002100BF16E00A24B4EB107F05D960
:100F3000302404EB107403F8114005E0412404EB65
:100F400010740A3C03F81140000100254C00641C99
:100F50001D554C1CE1B29142E6DB30BD70B5304806
:100F60000468001D0568001D0668344454B1082259
:100F70002C492046FFF7D3FF04222A491031284686
:100F8000FFF7CDFF70BD70B505460C461A202080D6
:100F9000FFF7E4FF2348801E70BD70B505460C4680
:100FA0002DB92246104920A00DF06CFA04E022462B
:100FB0000D491DA00DF066FA0B4870BD70B50546D1
:100FC0000C462DB9224608491CA00DF05BFA04E03E
:100FD0002246054919A00DF055FA034870BD0000DE
:100FE0003480002048800020688C002053544D330A
:100FF0003220437573746F6D2048756D616E206982
:101000006E746572666163650000000053544D693B
:1010100063726F656C656374726F6E6963730000F1
:10102000107AFF1F4E800020437573746F6D204847
:10103000494420436F6E666967000000437573740E
:101040006F6D2048494420496E746572666163651E
:1010500000000000002070470020704730B50246B5
:101060000B460748D0F8BC12002004E00C5C054D8C
:101070002C54441CE0B20428F8DB002030BD0000F2
:1010800090850020D4800020704700BFFEE700BF9D
:10109000FEE700BFFEE700BFFEE7704710B5064859
:1010A00005F058FE054805F055FE10BD10B5044882
:1010B00000F0EBFA10BD000090840020688E002044
:1010C0006088002008B500BF00200090114800682B
:1010D00040F480400F4908600846006800F48040F2
:1010E000009000BF00BF00BF00200090081F0068F4
:1010F00040F08050091F08600846006800F08050EA
:10110000009000BF00BF00220F21901E03F0DCFE04
:1011100008BD00004438024070B588B00446002580
:101120000026002221461A2003F0CEFE1A2003F0EA
:1011300009FF00BF002001901F48006840F4802094
:101140001D4908600846006800F48020019000BF37
:1011500000BF02A903A803F054F802F0B8FF054647
:101160001648B5FBF0F0461E15481649086040F2D7
:10117000E7311448C160466000210161816004F0DC
:10118000AFF920B90F4804F01AFA08B070BD012079
:10119000FBE70C480068C06820F0010009490968B5
:1011A000C860704707480068C06840F00100054902
:1011B0000968C860704700004438024040420F0090
:1011C00000480140688E0020704770B58AB0044620
:1011D00014B901200AB070BD266894F8BD0328B97F
:1011E000002084F8BC032046FFF73CFC032084F871
:1011F000BD03F06B00F4807008B900212161206804
:1012000000F0D6FF282204F1100168460DF091FB92
:1012100094E80F0000F025FF20B1022084F8BD0300
:101220000120D7E70021206800F0C9FF002531E048
:101230000121C5EBC50204F13C0000EB82004170C6
:10124000C5EBC50104F13C0000F82150C5EBC50118
:1012500000EB8100C5800021C5EBC50204F13C0014
:1012600000EB8200C170C5EBC50204F13C0000EB4D
:1012700082008160C5EBC50204F13C0000EB8200F6
:10128000C160C5EBC50204F13C0000EB8200416186
:10129000681CC5B26068A842CAD800252AE00021AF
:1012A000C5EBC50204F5FE7000EB82004170C5EB92
:1012B000C50104F5FE7000F821500021C5EBC50200
:1012C00000EB8200C170C5EBC50204F5FE7000EBB7
:1012D00082008160C5EBC50204F5FE7000EB820060
:1012E000C160C5EBC50204F5FE7000EB82004161F0
:1012F000681CC5B26068A842D1D8282204F1100148
:1013000068460DF016FB94E80F0000F0A5FF20B131
:10131000022084F8BD0301205CE7002084F8380037
:10132000012084F8BD03206801F047FE002051E74A
:10133000704710B5044600BF94F8BC03012801D1E2
:10134000022010BD012084F8BC0300BF206800F01B
:101350002FFF206801F0DEFD30B100BF002084F8CF
:10136000BC0300BF0120ECE7206801F026FE00BFAF
:10137000002084F8BC0300BF00BFE2E710B50446BC
:101380000CB9012010BD032084F8BD032046FFF7EF
:10139000D0FF2046FFF7B6FB002084F8BD0300BF56
:1013A000F0E770B50446256800BF94F8BC03012837
:1013B00001D1022070BD012084F8BC0300BFA06AE7
:1013C000012806D1A069012803D0A86B40F4803021
:1013D000A863206801F0E1FD206800F0E2FE00BF94
:1013E000002084F8BC0300BF00BFE3E770477047EC
:1013F0007047704770477047704770472DE9F84F46
:1014000007460E46D7F80090C846C6EBC60107F15E
:101410003C0000EB8104D4E90510884202D9012088
:10142000BDE8F88FD4E90501451AA068A84200D2AA
:10143000A568E81C4FEA900A17E0D4E90501451AAF
:10144000A068A84200D2A568E81C4FEA900A387C40
:10145000ABB2F2B200904846E16801F00BFAE068E6
:101460002844E060A0692844A06108F5106000EB02
:101470004610806980B2504506D3D4E905108842F1
:1014800002D260690028D8D1D4E9050188420ED87B
:1014900006F00F01012000FA01FB40F6340050F87D
:1014A000080020EA0B0040F6340141F80800002053
:1014B000B6E7704770472DE9F04704460D462668A9
:1014C0003746D6F8408007F5306000EB4510D0F87D
:1014D0000890FE4880450BD909F40040B0F5004F54
:1014E00006D14FF4004107F5306000EB45108160F4
:1014F0002046FFF71EFBF548804508D920690128E2
:1015000005D104F571720121206801F0C2FD0020AF
:10151000BDE8F08770472DE9F04705460C46D5F841
:1015200000804646D8F8409006F5306000EB441045
:1015300087682869012873D107F0080008280FD1AF
:10154000E24881450BD907F40040B0F5004F06D1C1
:101550004FF4004106F5306000EB4410816091E0EB
:1015600007F02000202806D1202106F5306000EB8E
:101570004410816086E007F0280000280ED1D3488F
:1015800081450CD907F40040B0F5004F07D14FF466
:10159000004106F5306000EB4410816072E0C4EB5E
:1015A000C40105F5FE7000EB8100816806F530602E
:1015B00000EB44100069C0F31200091AC4EBC40226
:1015C00005F5FE7000EB82008161C4EBC40105F5F6
:1015D000FE7000EB8100C4EBC402C16805F5FE702B
:1015E00000EB820080680144C4EBC40205F5FE7084
:1015F00000EB8200C1606CB9C4EBC40105F5FE705C
:1016000000EB8100406928B905F571720121286855
:1016100001F03FFDE1B22846FFF794FA32E0FFE720
:10162000AB4881451BD107F40040B0F5004F07D10E
:101630004FF4004106F5306000EB4410816021E07A
:1016400007F02000202805D1202106F5306000EBAE
:1016500044108160E1B22846FFF774FA12E06CB9D9
:10166000C4EBC40105F5FE7000EB8100406928B9A8
:1016700005F571720021286801F00BFDE1B22846E2
:10168000FFF760FA0020BDE8F0872DE9FE4F044621
:1016900020680290029D206801F0E2FC00286ED1D3
:1016A000206801F09AFC08B9BDE8FE8F206801F0BF
:1016B00094FC00F00200022805D12068406900F087
:1016C000020021684861206801F087FC00F01000EA
:1016D000102846D12068806920F0100021688861B8
:1016E0000298D0F8209009F00F00C0EBC00104F57B
:1016F000FE7000EB810BC9F3434002281AD147F674
:10170000F07009EA000030B3C9F30A12DBF80C10DC
:10171000029801F05AFBC9F30A11DBF80C000844E7
:10172000CBF80C00C9F30A11DBF818000844CBF819
:10173000180010E0C9F3434006280CD1082204F534
:101740007171029801F041FBC9F30A11DBF818002E
:101750000844CBF818002068806940F01000216828
:101760008861206801F039FC00F40020B0F5002FFA
:1017700051D10026206801F035FC824648E034E271
:101780000AF00100E8B3F1B2206801F03FFC8046A6
:1017900008F0010048B1012105F5306000EB46106A
:1017A000816031462046FFF7B6FE08F008000828A1
:1017B00009D1082105F5306000EB46108160314603
:1017C0002046FFF778FE08F01000102805D1102100
:1017D00005F5306000EB4610816008F020002028FD
:1017E00005D1202105F5306000EB4610816008F43A
:1017F0000050B0F5005F08D14FF4005105F530609E
:1018000000E002E000EB46108160761C4FEA5A0AC5
:10181000BAF1000FB4D1206801F0DFFB00F48020A2
:10182000B0F5802F7ED1206801F0E6FB82460026CD
:1018300088E00AF00100002875D0F1B2206801F0BC
:10184000F2FB804608F00100F0B306F00F01012022
:101850008840019040F634004159019821EA000087
:1018600040F634014851012105F5106000EB4610A7
:1018700081602069012824D1C6EBC60104F13C0037
:1018800000EB8100C6EBC602C16804F13C0000EB2E
:10189000820080680144C6EBC60204F13C0000EB04
:1018A0008200C1606EB9C6EBC60104F13C0000EBDA
:1018B0008100406928B904F571720121206801F0A6
:1018C000E8FBF1B2204605E006E000000A30544F84
:1018D0000A31544FFFF746F908F00800082805D1EF
:1018E000082105F5106000EB4610816008F010003B
:1018F000102805D1102105F5106000EB461081601D
:1019000008F04000402805D1402105F5106000EBAB
:101910004610816008F00200022808D1022105F576
:10192000106001E012E00AE000EB4610816008F070
:101930008000802803D131462046FFF75FFD761CEA
:101940004FEA5A0ABAF1000F7FF473AF206801F032
:1019500044FB00F00040B0F1004F1CD140F6040001
:10196000405920F0010140F60400415194F8F4037D
:10197000012807D1002084F8F4030021204600F05C
:101980004AFB02E02046FFF72DF92068406900F08D
:10199000004021684861206801F01FFB00F40060EE
:1019A000B0F5006F0ED140F60800405900F001007C
:1019B00010B12046FFF7FFF82068406900F400608E
:1019C00021684861206801F008FB00F48050B0F500
:1019D000805F7DD140F60400405920F0010140F6BF
:1019E000040041511021206800F017FC00273EE060
:1019F0004FF67F3105F5106000EB4710816005F56B
:101A0000106000EB4710006820F4001105F510602D
:101A100000EB4710016005F5106000EB471000680F
:101A200040F0006105F5106000EB471001604FF6D3
:101A30007F3105F5306000EB4710816005F53060BF
:101A400000EB4710006820F4001105F5306000EB52
:101A50004710016005F5306000EB4710006840F06A
:101A6000006105F5306000EB471001607F1C606885
:101A7000B842BDD840F61C00405940F0011140F674
:101A80001C004151206B70B1D5F8840840F00B0167
:101A9000C5F8841840F64400405940F00B0140F668
:101AA000440041510FE040F61400405942F22B012E
:101AB000084340F614014851081F405940F00B01FB
:101AC0004FF401604151D5F8000820F4FE6000E0B9
:101AD0000DE0C5F80008217C04F57172206801F062
:101AE000D8FA2068406900F4805021684861206875
:101AF00001F073FA00F40050B0F5005F17D12068D0
:101B000001F0B3FA206800F0AEFCE06002F0D0FA19
:101B10000090227B2068009900F0E3FA2046FFF74E
:101B200038F82068406900F4005021684861206856
:101B300001F053FA00F00800082808D12046FFF70A
:101B400021F82068406900F0080021684861206899
:101B500001F043FA00F48010B0F5801F0AD100268E
:101B600031462046FFF74EF82068406900F48010A7
:101B700021684861206801F030FA00F40010B0F5E7
:101B8000001F0AD1002631462046FFF732F82068B0
:101B9000406900F4001021684861206801F01DFAD6
:101BA00000F08040B0F1804F08D12046FFF733F8B5
:101BB0002068406900F0804021684861206801F099
:101BC0000CFA00F0040004280FD12068D0F804902B
:101BD00009F00400042802D12046FFF723F820680A
:101BE000406840EA09002168486000BF5CE570B5C4
:101BF0000446256800BF94F8BC03012801D10220E7
:101C000070BD012084F8BC0300BFA06A012806D182
:101C1000A069012803D0A86B40F48030A863206835
:101C200001F0BBF900BF002084F8BC0300BF00BF77
:101C3000E6E710B5044600BF94F8BC03012801D1C3
:101C4000022010BD012084F8BC0300BF206801F011
:101C5000B4F900BF002084F8BC0300BF00BFF0E768
:101C600070B504460D4600BF94F8BC03012801D1AD
:101C7000022070BD012084F8BC0300BF84F83850F6
:101C80002946206801F074F900BF002084F8BC03E5
:101C900000BF00BFEDE72DE9F04705460E46904630
:101CA0001F464FF0000906F0800080280AD106F098
:101CB0000F00C0EBC00105F13C0000EB81040120E6
:101CC000607009E006F00F00C0EBC00105F5FE7082
:101CD00000EB81040020607006F00F002070C4F853
:101CE0000880E770607808B12078E080022F01D189
:101CF0000020207100BF95F8BC03012802D102200A
:101D0000BDE8F087012085F8BC0300BF21462868A4
:101D100000F0BCFB00BF002085F8BC0300BF4846B4
:101D2000EEE770B504460E4606F0800080280AD122
:101D300006F00F00C0EBC00104F13C0000EB810590
:101D40000120687009E006F00F00C0EBC00104F547
:101D5000FE7000EB81050020687006F00F0028700F
:101D600000BF94F8BC03012801D1022070BD0120FE
:101D700084F8BC0300BF2946206800F04FFC00BF78
:101D8000002084F8BC0300BF00BFEFE72DE9F0415D
:101D900004460E461746984606F00F00C0EBC001F9
:101DA00004F5FE7000EB8105EF60C5F8148000209B
:101DB000A861687006F00F0028702069012800D122
:101DC0002F6106F00F0028B9227C2946206800F018
:101DD0000FFF04E0227C2946206800F069FD002006
:101DE000BDE8F081024601F00F00C0EBC00302F530
:101DF000FE7000EB8300806970472DE9F0410446D6
:101E00000E461746984606F00F00C0EBC00104F1DD
:101E10003C0000EB8105EF60C5F814800020A8614C
:101E20000120687006F00F0028702069012800D199
:101E30002F6106F00F0028B9227C2946206800F0A7
:101E4000D7FE04E0227C2946206800F031FD002006
:101E5000BDE8F08170B504460D4605F00F006168DD
:101E6000884201D9012070BD05F0800080280AD188
:101E700005F00F00C0EBC00104F13C0000EB81064F
:101E80000120707007E0C5EBC50104F5FE7000EBA2
:101E90008106002070700120B07005F00F003070D6
:101EA00000BF94F8BC03012801D10220DBE7012028
:101EB00084F8BC0300BF3146206800F097FF05F0AE
:101EC0000F0028B9217C04F57172206801F0E1F857
:101ED00000BF002084F8BC0300BF00BFC3E770B59B
:101EE00004460E4606F00F006168884201D90120C1
:101EF00070BD06F0800080280AD106F00F00C0EB0C
:101F0000C00104F13C0000EB81050120687009E08C
:101F100006F00F00C0EBC00104F5FE7000EB810578
:101F2000002068700020A87006F00F00287000BF25
:101F300094F8BC03012801D10220D9E7012084F8DC
:101F4000BC0300BF2946206800F09DFF00BF0020B1
:101F500084F8BC0300BF00BFCAE770B504460D4655
:101F600000BF94F8BC03012801D1022070BD0120FC
:101F700084F8BC0300BF05F08000802805D105F07F
:101F80000F01206800F049F902E0206800F032F902
:101F900000BF002084F8BC0300BF00BFE6E710B517
:101FA0000446206801F0A8FC10BD10B50446206866
:101FB00001F0B4FC10BD014691F8BD037047F0B5C7
:101FC000034615461868446A21B944EA05401E686C
:101FD000B06219E01868806A04EB1044002208E03F
:101FE000186800F5827050F8220004EB1044501C71
:101FF000C2B2481E9042F3D844EA0547186800F57B
:1020000082704E1E40F826700020F0BD0246106817
:10201000416200207047704770470000014600226F
:1020200000BF501C0246FE4B984201D90320704766
:10203000086900F000400028F3D00022086940F051
:102040000100086100BF501C0246F54B984201D9BF
:102050000320ECE7086900F001000028F3D100BF7D
:10206000E5E70FB470B504460A98012817D1A06BB4
:1020700020F48030A063E068EA490840E060E0684E
:1020800020F44010E0601198012803D1E06840F48A
:102090008010E0602046FFF7C1FF054612E0E068CF
:1020A00040F04000E0602046FFF7B8FF05460E987C
:1020B00020B9A06B40F48030A06303E0A06B20F453
:1020C0008030A0630898012807D1A06840F006007E
:1020D000A060A06840F02000A060284670BC5DF8B9
:1020E00014FB30B503461446022C49D1CE48814238
:1020F00004D3CE48814201D20F2245E0CB48814231
:1021000004D3CB48814201D20E223DE0C84881422F
:1021100004D3C848814201D20D2235E0C54881422E
:1021200004D3C548814201D20C222DE0C24881422D
:1021300004D3C248814201D20B2225E0BF4881422C
:1021400004D3BF48814201D20A221DE0BC4881422B
:1021500004D3BC48814201D2092215E0B94881422A
:1021600004D3B948814201D208220DE0B648814229
:1021700004D3B648814201D2072205E0062203E0DB
:102180000CB9092200E00922D86820F47050D86008
:10219000D8684FF4705505EA82252843D86000209E
:1021A00030BD0146886840F001008860002070471B
:1021B0000146886820F0010088600020704770B5F3
:1021C00004460D46E06820F0C040E060012D04D1D7
:1021D000E06840F00050E06007E025B9E06840F0BA
:1021E0008040E06001E0012070BD322003F0B4F8CF
:1021F0000020F9E7014600221020086100BF501CB2
:102200000246874B984201D903207047086900F0C5
:1022100010001028F3D00020F7E710B50246002385
:10222000202040EA8110106100BF581C03467C4CFE
:10223000A04201D9032010BD106900F02000202821
:10224000F3D00020F7E702461346D3F8000808430E
:10225000C3F80008002070470FB4F0B5054600270A
:102260002E46002405E0002105F5827040F8241078
:10227000641C0F2CF7D31098A0B940F604008059C5
:1022800040F0020140F604008151A86B40F40010B8
:10229000A863A86B20F40020A863A86B20F480201A
:1022A000A86307E0A86B20F40010A863A86B40F4B3
:1022B0000020A8630020C6F8000ED6F80008C6F873
:1022C00000080B9801280BD1089820B90021284656
:1022D000FFF7B9FF08E001212846FFF7B4FF03E04C
:1022E00003212846FFF7AFFF10212846FFF795FF8F
:1022F00000B101272846FFF77DFF00B1012700212B
:102300004FF401608151001D815140F61C00815144
:1023100000242EE006F5106000EB4410006800F089
:102320000040B0F1004F10D13CB94FF0006106F50C
:10233000106000EB441001600DE04FF0904106F595
:10234000106000EB4410016005E0002106F510600C
:1023500000EB44100160002106F5106000EB441012
:1023600001614FF67F3106F5106000EB441081608B
:10237000641C0698A042CDD800242EE006F53060FB
:1023800000EB4410006800F00040B0F1004F10D1A5
:102390003CB94FF0006106F5306000EB441001607D
:1023A0000DE04FF0904106F5306000EB4410016005
:1023B00005E0002106F5306000EB441001600021CB
:1023C00006F5306000EB441001614FF67F3106F5F1
:1023D000306000EB44108160641C0698A042CDD8A8
:1023E0004FF40160805920F480714FF401608151F5
:1023F0000020A8616FF080406861099818B9A86949
:1024000040F01000A861A86911490843A8610C9820
:1024100018B1A86940F00800A8611098012819E0D7
:10242000400D0300BFFFBDFFC0ACD800C0E1E40019
:102430000024F40080730601A0491A01002D310127
:1024400040A44C0100366E0120ABA6010048E80113
:1024500000383C8003D1A869FE490843A86138468A
:10246000F0BC5DF814FB10B501460B4640F60804BD
:10247000E45804F006020AB9002006E0022A01D05E
:10248000062A01D1022000E00F2010BD70B50446DD
:102490000B4622461978587801282CD140F61C00AA
:1024A00080581D7805F00F060125B540ADB22843D0
:1024B00040F61C05A85002F5106000EB41100068C2
:1024C00000F40040F0BB1889C0F30A00DD7840EA50
:1024D000854040EA815040F0805040F4004002F5D1
:1024E000106505EB41152D68284302F5106505EBD5
:1024F000411528602DE040F61C0080581D7805F03D
:102500000F060125B540D44E06EA0545284340F69E
:102510001C05A85002F5306000EB4110006800F483
:10252000004078B91889C0F30A00DD7840EA854098
:1025300040F0805040F4004002F5306505EB411555
:102540002D6800E005E0284302F5306505EB4115F4
:102550002860002070BD70B504460B4622461978ED
:10256000587801282CD102F5106000EB411000686A
:1025700000F40040B0B91889C0F30A00DD7840EAE1
:10258000854040EA815040F0805040F4004002F520
:10259000106505EB41152D68284302F5106505EB24
:1025A0004115286040F63C0080581D7805F00F0664
:1025B0000125B540ADB2284340F63C05A8502BE0BC
:1025C00002F5306000EB4110006800F40040A0B953
:1025D0001889C0F30A00DD7840EA854040EA81505E
:1025E00040F4004002F5306505EB41152D682843A5
:1025F00002F5306505EB4115286040F63C00805837
:102600001D7805F00F060125B540934E06EA0545F5
:10261000284340F63C05A850002070BD70B5044624
:102620000B46224619785878012848D102F51060E7
:1026300000EB4110006800F00040B0F1004F17D1EE
:1026400002F5106000EB4110006840F0006502F5F3
:10265000106000EB4110056002F5106000EB4110C6
:10266000006840F0804502F5106000EB4110056005
:1026700040F63C0080581D7805F00F060125B54056
:10268000ADB2A84340F63C05A85040F61C00805867
:102690001D7805F00F060125B540ADB2A84340F600
:1026A0001C05A85002F5106000EB411000686B4D4E
:1026B000284002F5106505EB411528604BE002F556
:1026C000306000EB4110006800F00040B0F1004FB6
:1026D00017D102F5306000EB4110006840F0006552
:1026E00002F5306000EB4110056002F5306000EB50
:1026F0004110006840F0804502F5306000EB411069
:10270000056040F63C0080581D7805F00F06012555
:10271000B540514E06EA0545A84340F63C05A85091
:1027200040F61C008558187800F00F060120B040D4
:10273000494E06EA0040854340F61C00855002F5EC
:10274000306000EB41100068454D284002F53065CF
:1027500005EB41152860002070BD70B504460B469E
:1027600022461978587801283BD102F5106000EB19
:102770004110006800F00040B0F1004F17D102F5A1
:10278000106000EB4110006840F0006502F5106039
:1027900000EB4110056002F5106000EB411000688D
:1027A00040F0804502F5106000EB4110056002F535
:1027B000106000EB4110006820F4004502F5106045
:1027C00000EB4110056040F61C0080581D7805F0B4
:1027D0000F060125B540ADB2A84340F61C05A85030
:1027E00046E002F5306000EB4110006800F0004068
:1027F000B0F1004F17D102F5306000EB41100068D6
:1028000040F0006502F5306000EB4110056002F514
:10281000306000EB4110006840F0804502F5306008
:1028200000EB4110056002F5306000EB41100068DC
:1028300020F4004502F5306000EB4110056040F6E1
:102840001C008558187800F00F060120B040024E99
:1028500008E00000040000400000FFFF007833ECB7
:102860000078F3EF06EA0040854340F61C008550EF
:10287000002070BD2DE9F04304460D46DDF81CC074
:10288000A0462E46BCF1000F0FD1D81C87080021AE
:1028900009E008F5805000EB0230D6F80090C0F84F
:1028A0000090361D491CB942F3D30020BDE8F083E7
:1028B0002DE9F84381460E4617464D463478707828
:1028C00001287DD1706920BB05F5106000EB441034
:1028D0000069FE49084005F5106101EB44110861EB
:1028E00005F5106000EB4410006940F4002105F587
:1028F000106000EB4410016105F5106000EB44101E
:102900000069C10CC90405F5106000EB44100161B9
:1029100055E005F5106000EB44100069C10CC904D6
:1029200005F5106000EB4410016105F5106000EB47
:1029300044100069E549084005F5106101EB4411B8
:102940000861B16870690844401EB0FBF1F0DF49CE
:10295000C94301EAC04005F5106101EB4411096962
:10296000084305F5106101EB4411086105F510609D
:1029700000EB441000697169C1F31201084305F5C9
:10298000106101EB44110861F078012817D105F5B9
:10299000106000EB4410006920F0C04105F51060A4
:1029A00000EB4410016105F5106000EB4410006974
:1029B00040F0005105F5106000EB4410016100E0AB
:1029C0007FE0012F36D1306928B105F5106000EBAA
:1029D000441031694161F07801281ED140F60800A9
:1029E000405900F4807060B905F5106000EB4410A8
:1029F000006840F0005105F5106000EB44100160E4
:102A00000BE005F5106000EB4410006840F08051C9
:102A100005F5106000EB4410016005F5106000EB57
:102A20004410006840F0044105F5106000EB4410CC
:102A30000160DAE005F5106000EB4410006840F03A
:102A4000044105F5106000EB44100160F0780128A6
:102A50000FD070690028ECD040F63400405931782E
:102A600001F00F0201219140084340F63401485122
:102A7000BBE040F60800405900F4807060B905F5ED
:102A8000106000EB4410006840F0005105F5106044
:102A900000EB441001600BE005F5106000EB441002
:102AA000006840F0805105F5106000EB44100160B3
:102AB0000097B08A83B232784846F168FFF7DAFEB1
:102AC00093E005F5306000EB44100069C10CC904C7
:102AD00005F5306000EB4410016105F5306000EB56
:102AE000441000697949084005F5306101EB441153
:102AF00008617069D0B905F5306000EB44100069D9
:102B0000B168C1F31201084305F5306101EB4411CE
:102B1000086105F5306000EB4410006940F40021C5
:102B200005F5306000EB4410016126E0B168706982
:102B30000844401EB0FBF1F01FFA80F805F5306044
:102B400000EB441000696149C94301EAC8410843E8
:102B500005F5306101EB4411086105F5306000EBCB
:102B600044100069B16801FB08F1C1F31201084388
:102B700005F5306101EB44110861012F07D1F068C0
:102B800028B105F5306000EB4410F1684161F07840
:102B900001281ED140F60800405900F4807060B949
:102BA00005F5306000EB4410006840F0005105F579
:102BB000306000EB441001600BE005F5306000EB85
:102BC0004410006840F0805105F5306000EB44107F
:102BD000016005F5306000EB4410006840F00441EE
:102BE00005F5306000EB441001600020BDE8F8837B
:102BF000F0B505460B4614462A4619785878012840
:102C000063D1586920BB02F5106000EB41100069E8
:102C10002E4E304002F5106606EB4116306102F58B
:102C2000106000EB4110006940F4002602F51060CE
:102C300000EB4110066102F5106000EB41100069E5
:102C4000C60CF60402F5106000EB4110066137E097
:102C500002F5106000EB41100069C60CF60402F5A5
:102C6000106000EB4110066102F5106000EB4110AE
:102C70000069164E304002F5106606EB41163061D1
:102C80009E685869B04201D99868586102F5106091
:102C900000EB4110006940F4002602F5106000EBE3
:102CA0004110066102F5106000EB411000695E6999
:102CB000C6F31206304302F5106606EB411630618A
:102CC000012C18D1186948B102E030E0FFFF07E09D
:102CD00002F5106000EB41101E69466102F51060BC
:102CE00000EB4110006840F0044602F5106000EB74
:102CF0004110066067E002F5106000EB41100068CB
:102D000040F0044602F5106000EB4110066058697F
:102D1000002858D040F6340080581E7806F00F077F
:102D20000126BE40304340F63406B0504BE002F579
:102D3000306000EB41100069C60CF60402F530600B
:102D400000EB4110066102F5306000EB41100069B4
:102D5000FD4E304002F5306606EB41163061586991
:102D600008B19868586102F5306000EB41100069C5
:102D700040F4002602F5306000EB4110066102F5D8
:102D8000306000EB411000699E68C6F312063043C4
:102D900002F5306606EB41163061012C07D1D86888
:102DA00028B102F5306000EB4110DE68466102F5A3
:102DB000306000EB4110006840F0044602F53060DE
:102DC00000EB411006600020F0BDF0B503461E4642
:102DD0000846D71CBD08002405E04FF48057BF59B2
:102DE0000760001D641CAC42F7D3F0BD30B504464B
:102DF0000B46224619785878012821D102F5106037
:102E000000EB4110006800F0004060B959B102F5D4
:102E1000106000EB4110006820F0804502F5106062
:102E200000EB4110056002F5106000EB41100068F6
:102E300040F4001502F5106000EB4110056020E041
:102E400002F5306000EB4110006800F0004060B90E
:102E500059B102F5306000EB4110006820F0804568
:102E600002F5306000EB4110056002F5306000EBC8
:102E70004110006840F4001502F5306000EB41108D
:102E80000560002030BD30B504460B462246197857
:102E9000587801281ED102F5106000EB411000683F
:102EA00020F4001502F5106000EB41100560D878A1
:102EB000032802D0D87802282AD102F5106000EB4E
:102EC0004110006840F0805502F5106000EB4110A1
:102ED00005601DE002F5306000EB4110006820F451
:102EE000001502F5306000EB41100560D87803282A
:102EF00002D0D87802280BD102F5306000EB4110E7
:102F0000006840F0805502F5306000EB411005602C
:102F1000002030BDF0B507463D4600240CE04FF6DA
:102F20007F3105F5106000EB4410816005F53060DD
:102F300000EB44108160641C0F2CF0D300214FF48F
:102F400001604151001D415140F61C00415138467D
:102F5000FFF750F906460EB13046F0BD1021384655
:102F6000FFF75BF906460EB13046F6E73046F4E768
:102F700010B502460B461146D1F8000820F4FE6059
:102F8000C1F80008D1F800084FF4FE6404EA031405
:102F90002043C1F80008002010BD70B50446254646
:102FA00040F60400405920F0020140F6040041516F
:102FB000032002F0D1F9002070BD70B5044625460B
:102FC00040F60400405940F0020140F6040041512F
:102FD000032002F0C1F9002070BD014648698A69EA
:102FE0001040704701460B4640F61800C258001DBD
:102FF000C0580240100C704701460B4640F61800BE
:10300000C258001DC058024090B2704710B5024629
:10301000134603F5306404EB4114A06840F6140431
:10302000E458204010BD70B5024613464FF40166C7
:10303000F45840F63406F55801F00F0625FA06F666
:1030400006F0010644EAC61403F5106606EB4116C5
:10305000B66806EA040070BD42690A4342617047DF
:103060000146486900F00100704701460A464FF4E6
:1030700010608058C30ADB024FF41060835040F6A2
:103080000400805840F4807340F604008350002010
:10309000704770B503460C4619461D6C2B48854297
:1030A00009D94FF43060405800F00040B0F1004FB3
:1030B00001D1002070BD0026C1F8106BD1F8100BB3
:1030C00040F40026C1F8106BD1F8100B40F0180640
:1030D000C1F8106BD1F8100B40F0C046C1F8106B6E
:1030E000012C09D1C1F8142B4FF43060405840F046
:1030F00080264FF4306046500020DBE708B50246DA
:10310000134600200090D3F840040090009820F06F
:103110002E000090009800F4805030B9012904D1AD
:10312000009840F48050C3F84004009800F48050A8
:10313000B0F5805F05D121B9009820F48050C3F824
:103140004004002008BD0000FFFF07E00A30544F94
:103150000FB470B5044625460020C5F8000EA06BDC
:1031600040F40010A063A06B20F40020A063A06BCB
:1031700020F48020A063E06B00F4807080B1079899
:10318000012806D1D5F8000440F00400C5F8000479
:103190000CE0D5F8000420F00400C5F8000405E0B8
:1031A000D5F8000420F00400C5F8000410212046E2
:1031B000FFF733F82046FFF71DF800260DE04FF02B
:1031C000FF3105F5A06000EB46108160002105F598
:1031D000A06000EB4610C160761C0698B042EED8A5
:1031E00001212046FFF78AFFC82002F0B5F8002031
:1031F000A061401E6061E06B00F4807040B14FF44C
:1032000000706062FE48A062FE48C4F8000106E05B
:1032100080206062FC48A062FC48C4F80001089865
:1032200018B9A06940F01000A061A069F8490843EE
:10323000A061002070BC5DF814FB10B502460B467F
:103240001146D1F8000420F00300C1F80004D1F8C1
:10325000000403F003042043C1F80004012B05D14E
:103260004BF6803440F20440445006E0022B04D177
:1032700041F2707440F204404450002010BD38B553
:103280000446254600200090D5F8400400900098A0
:1032900020F02E000090009840F48070C5F84004A3
:1032A000642002F059F8009820F48070C5F84004BA
:1032B0000A2002F051F8002038BD08B501460A4640
:1032C00000200090D2F8400400900098C0F34140E4
:1032D00008BD01460A464FF48160805880B27047AD
:1032E0002DE9F04F044615469C46DDE90A69DDF8F4
:1032F0002480002022464FF0FF3A02F5A06B0BEB32
:10330000411BCBF808A036B1012E53D0022E03D0BA
:10331000032E6BD132E000BF40F29D4A02F5A06B54
:103320000BEB411BCBF80CA005F0800ABAF1800F23
:103330000ED102F5A06A0AEB411ADAF80CA04AF4A1
:10334000807A02F5A06B0BEB411BCBF80CA014E0CC
:10335000D4F83CA00AF4807ABAF1000F0DD002F53F
:10336000A06A0AEB411ADAF80CA04AF0600A02F5EA
:10337000A06B0BEB411BCBF80CA039E040F29D6A2F
:1033800002F5A06B0BEB411BCBF80CA005F0800AFB
:10339000BAF1800F0DD102F5A06A0AEB411ADAF8F2
:1033A0000CA04AF4807A02F5A06B0BEB411BCBF822
:1033B0000CA01DE040F2252A02F5A06B0BEB411B8F
:1033C000CBF80CA005F0800ABAF1800F0DD102F500
:1033D000A06A0AEB411ADAF80CA04AF4C07A02F5A6
:1033E000A06B0BEB411BCBF80CA001E0012000BF50
:1033F00000BFD2F818A401F00F0E4FF0010B0BFA2A
:103400000EFB4AEA0B0AC2F818A4D4F818A04AF036
:10341000007AC4F818A005F0800ABAF1800F02D132
:103420004FF4004300E00023B8F1020F02D14FF443
:10343000003700E000274FF0FE5A0AEA8C5A4FF49A
:10344000F04B0BEAC52B4AEA0B0A4FF4402B0BEA70
:10345000864B4AEA0B0AC9F30A0B4AEA0B0A4AEA04
:10346000030A4AEA070A02F5A06B0BEB411BCBF8F3
:1034700000A0032E0DD102F5A06A0AEB411ADAF87A
:1034800000A04AF0005A02F5A06B0BEB411BCBF8F1
:1034900000A0BDE8F08FF0B503461C460A460126A1
:1034A0005C4800EAC64040F00047114604F5A060C1
:1034B00000EB4110076104F5A06000EB41100568C6
:1034C00025F0804545F0004504F5A06000EB411073
:1034D00005600020F0BD2DE9FC4F07460C469146E3
:1034E0003E4665784FF4807BF86B00F48070F8B14D
:1034F0002079E8B9B9F1000F09D16079012806D126
:1035000061783846FFF7C7FF0020BDE8FC8FB9F1AE
:10351000010F0DD106F5A06000EB4510C06820F04A
:10352000600106F5A06000EB4510C16000206071ED
:10353000206978B1218920690844401EB0FBF1F070
:103540001FFA80F8D84507DDD846208900FB08F02F
:10355000206101E04FF00108E07818B1208900FBFC
:1035600008F020612069C0F312002A4901EAC8412D
:103570000843A17A4FF0C04202EA4171084306F5C0
:10358000A06101EB45110861B9F1000F05D006F506
:10359000A06000EB4510E16841614FF48160805903
:1035A00000F0010080F00100019006F5A06000EB42
:1035B0004510006820F0005106F5A06000EB4510B2
:1035C000016006F5A06000EB45100168019841EA32
:1035D000407106F5A06000EB4510016006F5A060A3
:1035E00000EB451000680C4908600846006820F0B0
:1035F00080400860E078A8B1084600680EE000004E
:10360000000200010003E00080006000E0004000D4
:10361000080020A30000F81FE880002040F40040CC
:10362000086005E0C348006820F40040C149086014
:10363000C048006840F00040BE4908600846016884
:1036400006F5A06000EB45100160B9F1000F35D11F
:10365000E07898BB206988B3E07930B1012813D0B5
:10366000022803D003281ED10DE000BF2069C01C32
:10367000C0F38F0AF86A80B2504503D2B86940F0AF
:103680002000B86110E000BF2069C01CC0F38F0AA1
:103690004FF48260805980B2504503D2B86940F03F
:1036A0008060B86100E000BF00BF00200090208A69
:1036B00083B262783846E168FFF7DCF8002024E73F
:1036C00001460A4640F21440805880B27047F0B577
:1036D00003460C461A462146002502F5A06000EB81
:1036E00041100068C0F381460EB1022E53D102F59D
:1036F000A06000EB4110006840F0804702F5A06038
:1037000000EB41100760D86A00F47F00A8BB02F507
:10371000A06000EB4110006820F0004702F5A060B7
:1037200000EB4110076002F5A06000EB411000685B
:1037300040F0004702F5A06000EB4110076002F581
:10374000A06000EB4110006820F4004702F5A06083
:1037500000EB4110076000BF681C0546B0F57A7F9A
:1037600000D909E002F5A06000EB4110006800F00C
:103770000040B0F1004FEFD062E0FFE702F5A0603B
:1037800000EB4110006840F0004702F5A06000EB3C
:103790004110076054E002F5A06000EB41100068A2
:1037A00040F0804702F5A06000EB411007604FF445
:1037B0008260805800F47F00A8BB02F5A06000EB97
:1037C0004110006820F0004702F5A06000EB4110B6
:1037D000076002F5A06000EB4110006840F0004770
:1037E00002F5A06000EB4110076002F5A06000EB5D
:1037F0004110006820F4004702F5A06000EB411082
:10380000076000BF681C0546B0F57A7F00D909E063
:1038100002F5A06000EB4110006800F00040B0F13C
:10382000004FEFD00CE0FFE702F5A06000EB411085
:10383000006840F0004702F5A06000EB411007600F
:103840000020F0BD2DE9F04107463E464FF000084C
:103850003846FEF7ADFC10213846FEF7DEFC384650
:10386000FEF7C8FC002410E006F5A06000EB441051
:10387000056845F0804525F0004525F4004506F52E
:10388000A06000EB44100560641C0F2CECD90024F0
:1038900023E006F5A06000EB4410056845F0804584
:1038A00045F0004525F4004506F5A06000EB441006
:1038B000056000BF08F101008046B0F57A7F00D9AD
:1038C00009E006F5A06000EB4410006800F000403D
:1038D000B0F1004FEED000BF641C0F2CD9D94FF0CF
:1038E000FF3140F214408151084678613846FEF7B6
:1038F00058FC0020BDE8F08101460A4640F6080069
:10390000805800F0010038B140F60400805840F0C3
:10391000010340F6040083500020704701460A4628
:1039200040F60400805820F0010340F60400835064
:1039300000207047E880002000207047F8B504465A
:103940000CB90120F8BD207800F00100002874D0E7
:10395000F948006800F00C0004280DD0F648006813
:1039600000F00C00082813D1F348001F006800F491
:103970008000B0F5800F0BD1EF4808380068C0F325
:103980004040002859D06068002856D10120D9E76E
:1039900000BF6068B0F5803F08D1E748083800688C
:1039A00040F48030E449083908601EE06068B0F5F2
:1039B000A02F0DD1E0480838006840F48020DE498F
:1039C000083908600846006840F4803008600CE060
:1039D000D9480838006820F48030D7490839086091
:1039E0000846006820F48020086000BF606890B13D
:1039F00001F095FC054606E001F091FC401B6428AF
:103A000001D903209EE7CC4808380068C0F3404045
:103A10000028F1D011E001F082FC054606E001F03B
:103A20007EFC401B642801D903208BE7C24808387C
:103A30000068C0F340400028F1D1207800F0020077
:103A400002285FD1BC48006800F00C0058B1BA48A9
:103A5000006800F00C0008281CD1B748001F00685F
:103A600000F48000B0B9B44808380068C0F34000E2
:103A700020B1E068012801D0012063E7AE48083892
:103A8000006820F0F800216940EAC100AA4908391D
:103A9000086037E0E06800B30120A849086001F041
:103AA0003EFC054606E001F03AFC401B022801D925
:103AB000032047E7A04808380068C0F3400000280A
:103AC000F1D09D480838006820F0F800216940EAEC
:103AD000C10099490839086014E00020974908603E
:103AE00001F01DFC054606E001F019FC401B022810
:103AF00001D9032026E7904808380068C0F3400049
:103B00000028F1D1207800F0080008282CD1606945
:103B1000A8B101208A49086001F001FC054606E0D1
:103B200001F0FDFB401B022801D903200AE782486F
:103B30006C300068C0F340000028F1D014E0002091
:103B40007F49086001F0EBFB054606E001F0E7FB6A
:103B5000401B022801D90320F4E677486C30006846
:103B6000C0F340000028F1D1207800F004000428C0
:103B700070D1002770483830006800F0805090B94C
:103B800000BF002000906C483830006840F0805042
:103B90006949383108600846006800F0805000909C
:103BA00000BF00BF01276748006800F48070B0B90B
:103BB0006448006840F480706249086001F0AFFB1F
:103BC000054606E001F0ABFB401B022801D90320AB
:103BD000B8E65C48006800F480700028F2D000BFAE
:103BE000A068012808D154486830006840F00100FE
:103BF0005149683108601DE0A06805280DD14E4884
:103C00006830006840F004004B496831086008469D
:103C1000006840F0010008600CE047486830006828
:103C200020F001004449683108600846006820F02F
:103C30000400086000BFA068A8B101F070FB054651
:103C400009E001F06CFB401B41F28831884202D947
:103C5000032077E626E0384868300068C0F340006B
:103C60000028EED013E001F05AFB054608E001F011
:103C700056FB401B41F28831884201D9032061E69E
:103C80002D4868300068C0F340000028EFD1012FB4
:103C900007D129483830006820F080502649383153
:103CA000086000BFA069002845D02348006800F0E4
:103CB0000C0008285DD0A069022845D100201F49CA
:103CC000086601F02CFB054606E001F028FB401BCE
:103CD000022801D9032035E6174808380068C0F3E8
:103CE00040600028F1D1D4E907010843616A40EA45
:103CF00081110122A06AC2EB500041EA00412C2050
:103D0000005D41EA00600C49091F086001200B4971
:103D1000086601F004FB054606E001F000FB401BCD
:103D2000022801D903200DE6034808380068C0F3D3
:103D300040600028F1D03FE00838024000004742D0
:103D4000800E4742007000400020F849086601F0EC
:103D5000E6FA054606E001F0E2FA401B022801D926
:103D60000320EFE5F2480068C0F340600028F2D17C
:103D700022E0A069012800D1E4E5ED48001D0668B5
:103D800006F48001E069814214D106F03F01206A07
:103D900081420FD147F6C0703040616A884209D134
:103DA00006F44031A06A814204D106F07061E06AF5
:103DB000814201D00120C5E50020C3E52DE9F0478F
:103DC000002400250026A146D9480830006800F0EC
:103DD0000C0020B1042805D008283AD105E0DFF80E
:103DE000549339E0DFF8509336E0D148001D006865
:103DF00000F03F04CE48001D006800F4800078B158
:103E0000CD48CB49091D0968C1F38811A0FB017099
:103E100001462246002338460AF05AFD05460EE0C8
:103E2000C448C349091D0968C1F38811A0FB01708A
:103E300001462246002338460AF04AFD0546BC48A2
:103E4000001D0068C0F30140401C4600B5FBF6F9B8
:103E500002E0DFF8E09200BF00BF4846BDE8F0870F
:103E600070B504460D460CB9012070BDB34800681A
:103E700000F00F00A84209D2B0490D700846006852
:103E800000F00F00A84201D00120EEE7207800F0FA
:103E90000200022823D1207800F00400042807D172
:103EA000A3480830006840F4E050A1490831086098
:103EB000207800F00800082807D19D4808300068E5
:103EC00040F460409A490831086099480830006819
:103ED00020F0F000A1680843954908310860207877
:103EE00000F00100A0B36068012806D19048006886
:103EF000C0F34040A8B90120B7E76068022802D0AB
:103F00006068032806D18A480068C0F3406040B961
:103F10000120AAE786480068C0F3400008B90120E4
:103F2000A3E783480830006820F003006168084375
:103F30007F490831086001F0F2F9064609E001F016
:103F4000EEF9801B41F28831884202D903208CE7C8
:103F500008E077480830006800F00C006168B0EBBA
:103F6000810FECD17548006800F00F00A84209D914
:103F700072490D700846006800F00F00A84201D099
:103F8000012072E7207800F00400042809D1684875
:103F90000830006820F4E050E168084364490831C3
:103FA0000860207800F0080008280AD1604808302E
:103FB000006820F46040216940EAC1005C49083192
:103FC0000860FFF7FBFE5A4908310968C1F3031185
:103FD0005B4A515CC8405B4908605B480068FDF77C
:103FE0009BF8002041E770B586B006460C461546A2
:103FF00056BB00BF002000904D483030006840F0B4
:1040000001004B49303108600846006800F00100AB
:10401000009000BF00BF881501900220029003208D
:10402000049000200390059001A9484800F01EF973
:104030003F480830006820F0EC6044EA050108437E
:104040003B490831086029E000BF00200090384853
:104050003030006840F004003549303108600846CF
:10406000006800F00400009000BF00BF48150190F8
:10407000022002900320049000200390059001A9E3
:10408000334800F0F3F82A480830006820F0784000
:1040900044EAC501084326490831086006B070BDEE
:1040A00001202249C864704700202049C864704735
:1040B00024480068704700B5FFF7FAFF1C49083133
:1040C0000968C1F38221234A515CC84000BD00B594
:1040D000FFF7EEFF164908310968C1F342311D4A66
:1040E000515CC84000BD0F2101601149096801F40D
:1040F0008021B1F5802F03D14FF4A02141600CE065
:104100000B49096801F48031B1F5803F03D14FF4C8
:104110008031416001E0002141600549096801F0FA
:104120000101C9B10121C16018E00000000047424F
:10413000003802400024F40000127A00003C0240E3
:1041400084EB0008F8800020F0800020000002408E
:104150000008024094EB00080021C1604149096851
:10416000C1F3C40101613F497031096801F00401E4
:10417000042902D1052181600AE03A4970310968B9
:1041800001F0010111B10121816001E00021816094
:1041900034497431096801F0010111B10121416113
:1041A00001E0002141612F49096801F08071B1F1FE
:1041B000807F02D10221816101E0012181612949D1
:1041C000091D096801F48002C2612649091D0968B8
:1041D00001F03F0202622349091D0968C1F38812F8
:1041E00042622049091D096801F4403101F580311E
:1041F000CA0B82621B49091D0968C1F30362C262CE
:1042000070470F220260174A0832126802F0030258
:104210004260144A0832126802F0F0028260114AC9
:104220000832126802F4E052C2600E4A0832126884
:1042300002F46042D20802610B4A126802F00F02D7
:104240000A607047704710B506480C30006800F0EF
:104250008000802805D1FFF7F5FF802001490E314D
:10426000087010BD00380240003C0240F8B503461B
:104270000A460025002400200021CDE0012606FA90
:1042800001F5166806EA0504AC4273D15668012EA2
:1042900008D05668022E05D05668112E02D05668F6
:1042A000122E13D198684F000326BE40B0434F0032
:1042B000D668BE4030439860586801268E40B043AF
:1042C0001679C6F300168E4030435860D8684F0008
:1042D0000326BE40B0434F009668BE403043D860CE
:1042E0005668022E02D05668122E13D1CF0803F161
:1042F000200656F827004E07F70E0F26BE40B043A3
:104300004F07FF0E1669BE403043CF0803F1200669
:1043100046F8270018684F000326BE40B0431679C0
:1043200006F003064F00BE4030431860566806F0A2
:104330008056B6F1805F6ED100BF002600969D4E7C
:10434000366846F480469B4F3E603E46366806F42B
:104350008046009600BF00BF974E8F0856F8270092
:104360008E07370F0F26BE40B043944EB34202D1A2
:10437000002615E04FE0924EB34201D101260FE036
:10438000904EB34201D102260AE08F4EB34201D1D2
:10439000032605E08D4EB34201D1042600E0072636
:1043A0008F073F0FBE403043834E8F0846F82700EB
:1043B000874E3068A043566806F48036B6F5803FD5
:1043C00000D12043824E3060361D3068A0435668CD
:1043D00006F40036B6F5003F00D120437C4E361D72
:1043E0003060361D3068A043566806F48016B6F576
:1043F000801F00D12043764E08363060361D30686D
:10440000A043566806F40016B6F5001F00D12043FD
:104410006F4E0C363060491C1029FFF42FAFF8BDE9
:10442000F0B50C46002500220023002181E0012682
:1044300006FA01F504EA0502AA4279D15E4E8F0818
:1044400056F827308E07370F0F26BE4033405B4E9D
:10445000B04201D1002614E0594EB04201D10126EC
:104460000FE0584EB04201D102260AE0564EB0424B
:1044700001D1032605E0554EB04201D1042600E0EB
:1044800007268F073F0FBE409E4222D1504E36680E
:1044900096434F4F3E603E1D366896433F1D3E603B
:1044A0003E1D366896433F1D3E603E1D366896436E
:1044B0003F1D3E608E07370F0F2606FA07F33E4E6C
:1044C0008F0856F827609E433B4F4FEA910C47F800
:1044D0002C6006684FEA410C032707FA0CF7BE432D
:1044E0000660CF0800F1200656F827604F074FEA14
:1044F000D76C0F2707FA0CF7BE434FEAD10C00F137
:10450000200747F82C60C6684FEA410C032707FADA
:104510000CF7BE43C660466801278F40BE43466025
:1045200086684FEA410C032707FA0CF7BE43866002
:10453000491C1029FFF47BAFF0BD024613690B4004
:104540000BB1012000E0002070470AB1816101E059
:104550000B048361704742690A408A4202D10A040F
:10456000826100E08161704708B502464FF48030F7
:1045700000900098084300900098D061D1610098A5
:10458000D061D0690090D06900F4803008B100207B
:1045900008BD0120FCE7704710B504460C481430F4
:1045A0000068204028B10A48143004602046FFF714
:1045B000F2FF10BD443802400838014000000240BC
:1045C0000004024000080240000C024000100240BB
:1045D000003C01400146087810381823B0FBF3F284
:1045E000FC48805CC865032A05D908686FF3090098
:1045F000001D886503E008686FF309008865886D11
:104600007047014600208A6A8B69CBB932B1012A12
:104610000DD0022A03D0032A10D10EE000BFCB6ACE
:1046200003F08073B3F1807F00D1012007E0CB6AF3
:10463000B3F1C07F00D1012001E000E000BF34E011
:104640008B69B3F5005F1AD132B1012A07D0022A73
:1046500003D0032A11D10AE000BF01200EE0CB6A8B
:1046600003F08073B3F1807F00D1012006E0CB6AB4
:10467000B3F1C07F00D1012000E000BF15E032B1EE
:10468000012A05D0022A04D0032A0CD103E000BF7E
:1046900000BF012008E0CB6A03F08073B3F1807F94
:1046A00000D1012000E000BF00BF70472DE9F041BC
:1046B0000446002500F033FE074614B90120BDE88A
:1046C000F081606A00B100BF00BF002084F83400B0
:1046D00000BF022084F835002068006820F0010047
:1046E000216808600AE000F01AFEC01B052805D901
:1046F00020206065032084F83500E0E7206800682A
:1047000000F001000028EED120680568B24805409D
:10471000D4E901010843E16808432169084361695C
:104720000843A1690843E1690843216A0843054336
:10473000606A042803D1D4E90B01084305432068CB
:1047400005602068456925F00705606A0543606AD1
:1047500004280DD1A06A0543E06A48B12046FFF75E
:1047600050FF28B140206065012084F83500A6E79D
:10477000206845612046FFF72DFF064694F85C103F
:104780003F208840B06000206065012084F835003B
:10479000002094E770B504460CB9012070BD94F870
:1047A0003500022800D1F9E72068006820F00100F8
:1047B000216808600020216808602168486021683D
:1047C00088602168C86021680861212021684861EB
:1047D0002046FFF7FFFE05460020E063206460648A
:1047E000A064E064206594F85C103F208840A860D5
:1047F0000020606584F8350000BF84F8340000BFF5
:1048000000BFCBE730B50468246824F48024056831
:104810002C60046863608468402C04D10468A26042
:104820000468E16003E00468A1600468E26030BDF0
:104830002DE9F04104460D4616461F464FF000088C
:1048400000BF94F83400012802D10220BDE8F081B5
:10485000012084F8340000BF94F83500012811D1FC
:10486000022084F83500002060653B463246294628
:104870002046FFF7C7FF2068006840F0010021686C
:10488000086006E000BF002084F8340000BF4FF04D
:1048900002084046DAE72DE9F04704460D46164681
:1048A0001F464FF00008D4F8589000BF94F8340029
:1048B000012802D10220BDE8F087012084F83400ED
:1048C00000BF94F83500012825D1022084F8350076
:1048D000002060653B46324629462046FFF792FF9E
:1048E00094F85C103F208840C9F8080020680068F0
:1048F00040F0160021680860206C28B1206800682C
:1049000040F00800216808602068006840F001005D
:104910002168086006E000BF002084F8340000BF72
:104920004FF002084046C6E770B50446A56D00F09A
:10493000F6FC064694F83500022808D08020606511
:1049400000BF002084F8340000BF012070BD206843
:10495000006820F01600216808602068406920F097
:10496000800021684861206C08B9A06C28B12068DB
:10497000006820F00800216808602068006820F0C6
:104980000100216808600FE000F0C9FC801B0528C9
:104990000AD92020606500BF002084F8340000BFE1
:1049A000032084F83500D1E72068006800F001009A
:1049B0000028E9D194F85C103F208840A86000BF2F
:1049C000002084F8340000BF012084F83500002066
:1049D000BCE700007CEB00083F8010F0014691F836
:1049E0003500022803D0802048650120704705204B
:1049F00081F835000868006820F001000A6810603E
:104A00000020F3E72DE9F05F0446884617464FF093
:104A1000000A00F084FC834694F83500022809D08F
:104A20008020606500BF002084F8340000BF0120B2
:104A3000BDE8F09F2068006800F4807020B14FF45A
:104A4000807060650120F3E7B8F1000F05D194F89C
:104A50005C10202000FA01F904E094F85C101020AA
:104A600000FA01F9A56D2E6842E0781C90B12FB1D3
:104A700000F055FCA0EB0B00B8420BD9202060657C
:104A800000BF002084F8340000BF012084F8350006
:104A90000320CDE72E6894F85C1008208840304051
:104AA00040B1606D40F00100606594F85C10082032
:104AB0008840A86094F85C1001208840304040B1E4
:104AC000606D40F00200606594F85C100120884041
:104AD000A86094F85C1004208840304040B1606DBC
:104AE00040F00400606594F85C1004208840A860E1
:104AF00006EA090020B9606D00F001000028B4D07A
:104B0000606DA0B1606D00F0010080B12046FFF73C
:104B10000BFF94F85C1030208840A86000BF002094
:104B200084F8340000BF012084F8350080E7B8F134
:104B3000000F0DD194F85C1030208840A86000BFB1
:104B4000002084F8340000BF012084F8350004E020
:104B500094F85C1010208840A860504668E7F8B5CB
:104B6000044600200090C64800684FF41651B0FB80
:104B7000F1F7A56D2E6894F85C100820884030404D
:104B800098B12068006800F0040070B120680068E7
:104B900020F004002168086094F85C100820884028
:104BA000A860606D40F00100606594F85C10012021
:104BB0008840304068B12068406900F0800040B112
:104BC00094F85C1001208840A860606D40F00200FD
:104BD000606594F85C1004208840304068B120681B
:104BE000006800F0020040B194F85C100420884096
:104BF000A860606D40F00400606594F85C101020BF
:104C00008840304078B32068006800F0080050B356
:104C100094F85C1010208840A8602068006800F4B8
:104C2000802080B12068006800F4002028B9206C42
:104C3000C8B12046216C884715E0A06C98B1204689
:104C4000A16C88470FE02068006800F4807028B9E4
:104C50002068006820F0080021680860206C10B10E
:104C60002046216C884794F85C1020208840304012
:104C7000002865D02068006800F0100000285FD090
:104C800094F85C1020208840A86094F8350005282E
:104C900028D12068006820F016002168086020688C
:104CA000406920F0800021684861206C08B9A06C40
:104CB00028B12068006820F008002168086094F896
:104CC0005C103F208840A86000BF002084F83400BA
:104CD00000BF012084F83500206D10B12046216D01
:104CE0008847F8BD2068006800F4802080B1206803
:104CF000006800F4002028B9606C10B12046616C97
:104D000088471DE0E06BD8B12046E16B884717E08B
:104D10002068006800F4807068B92068006820F09E
:104D200010002168086000BF002084F8340000BF34
:104D3000012084F83500E06B10B12046E16B884714
:104D4000606D38B3606D00F00100F0B1052084F8AB
:104D500035002068006820F001002168086000BF6D
:104D60000098401C0090B84200D905E02068006817
:104D700000F001000028F3D100BF00BF002084F83C
:104D8000340000BF012084F83500E06C10B12046EB
:104D9000E16C884700BFA4E710B50346002400BFBC
:104DA00093F83400012801D1022010BD012083F8BE
:104DB000340000BF93F83500012814D1062910D221
:104DC000DFE801F0030507090B0DDA630AE01A6456
:104DD00008E05A6406E09A6404E0DA6402E01A65C6
:104DE00000E000BF00E0012400BF002083F8340091
:104DF00000BF2046D9E70246002300BF92F83400E6
:104E0000012801D102207047012082F8340000BF40
:104E100092F83500012824D107291FD2DFE801F0DC
:104E200004070A0D101316000020D06318E00020BC
:104E3000106415E00020506412E0002090640FE040
:104E40000020D0640CE00020106509E00020D06351
:104E5000106450649064D064106501E0012300BFC9
:104E600000E0012300BF002082F8340000BF184694
:104E7000C9E7014691F8350070470146486D704713
:104E8000F880002010B5002804DB0A07130EEC4A56
:104E9000135406E00A07140EEA4A00F00F031B1F22
:104EA000D45410BD00BF00F00702E64B0C3B19685C
:104EB0004FF6FF031940E44B0B4343EA0221E14B59
:104EC0000C3B196000BF70472DE9F05F80460D462E
:104ED0001646002700F0AEF9074639462A46334603
:104EE00001F00700C0F1070ABAF1040F02D94FF030
:104EF000040A01E0C0F1070AD14600F1040ABAF140
:104F0000070F02D24FF0000A01E0A0F1030AD446D5
:104F10004FF0010A0AFA09FAAAF1010A0AEA020A9A
:104F20000AFA0CFA4FF0010B0BFA0CFBABF1010B78
:104F30000BEA030B4AEA0B0421464046FFF7A2FFA7
:104F4000BDE8F09F01460846002809DB00F01F037A
:104F500001229A4043099B0003F1E023C3F800219A
:104F600000BF704710B501460846002817DB00F067
:104F70001F0301229A40B54B440943F8242000BF87
:104F800000BF00BFBFF34F8F00BF00BF00BF00BF17
:104F900000BF00BFBFF36F8F00BF00BF00BF00BFE7
:104FA00010BD00BF00BF00BF00BF00BFBFF34F8FE9
:104FB00000BF00BF00BFA3480C38006800F4E060E9
:104FC000A1490843001D9F490C39086000BF00BF7C
:104FD00000BFBFF34F8F00BF00BF00BF00BF00BFC7
:104FE000FDE770B504462546681EB0F1807F01D309
:104FF00001200FE0681E4FF0E02148610F214FF0C3
:10500000FF30FFF73FFF00204FF0E02188610720CD
:105010000861002070BD00BF00BF00BFBFF35F8FFD
:1050200000BF00BF00BF87480C30006820F480300C
:1050300084490C310860002082497C310860704747
:1050400040F001017F4A7C3211607E490C310968D1
:1050500041F480317B4A0C32116000BF00BF00BFB9
:10506000BFF34F8F00BF00BF00BF00BF00BF00BF36
:10507000BFF36F8F00BF00BF00BF70474178714A18
:10508000803211600178F9B1121D41681160017B15
:105090000907C27A41EA0261827A41EAC241427B4F
:1050A00041EA8241827B41EA4241C27B41EA0241BC
:1050B000427A41EA0221027A41EA4201027811432E
:1050C000604A8832116005E000215E4A8432116036
:1050D000121D1160704710B500F0ACF810BD2DE93D
:1050E000F04304462046002803DB554F3F5C3F0950
:1050F00007E0544F00F00F0CACF1040C17F80C70E3
:105100003F093D460E4606F00700C0F10708B8F11A
:10511000040F02D94FF0040801E0C0F10708C446AB
:1051200000F10408B8F1070F02D24FF0000801E0C7
:10513000A0F10308474625FA07F84FF0010909FADC
:105140000CF9A9F1010908EA0908C2F800804FF03A
:10515000010808FA07F8A8F1010808EA0508C3F8E9
:10516000008000BFBDE8F08310B501460846002866
:1051700008DB00F01F0301229A40344B80334409BE
:1051800043F8242000BF10BD10B501460846002892
:105190000EDB2E4A8032430952F8232000F01F0410
:1051A0000123A3401A400AB1012202E0002200E0DC
:1051B0000022104610BD10B501460846002807DB46
:1051C00000F01F0301229A40214B440943F8242098
:1051D00000BF10BD10B50146084600280EDB1C4A72
:1051E0008032430952F8232000F01F040123A3401A
:1051F0001A400AB1012202E0002200E0002210461B
:1052000010BD042808D14FF0E021096941F00401E4
:105210004FF0E022116107E04FF0E021096921F031
:1052200004014FF0E02211617047704710B5FFF79D
:10523000FCFF10BD03480C380068C0F30220704723
:1052400000E400E018ED00E00000FA0580E100E075
:1052500080E200E0704770B50446754800784FF46E
:105260007A71B1FBF0F073490968B1FBF0F528469B
:10527000FFF7B7FE08B1012070BD102C07D2002245
:105280002146501EFFF720FE6B48046001E001201C
:10529000F2E70020F0E710B56848006840F40070BD
:1052A000664908600846006840F480600860084667
:1052B000006840F4807008600320FFF7F3FD0020D1
:1052C000FBF72AFFFBF7FEFE002010BD704710B56C
:1052D0004FF0FF305A49086000200860401E091D49
:1052E000086000200860401E554910390860002001
:1052F0000860401E091D086000200860401E091D4E
:10530000086000200860FFF7E1FF002010BD4D4855
:1053100000684749097808444A4908607047494885
:105320000068704744480068704770B5044600251F
:105330003F480078A0420AD03D48067804703E48B5
:105340000068FBF7E9FE05460DB1394806702846AE
:1053500070BD37480078704770B50446FFF7DFFF2F
:1053600006462546681C10B131480078054400BF48
:10537000FFF7D5FF801BA842FAD370BD4FF0E020A5
:10538000006920F002004FF0E021086170474FF003
:10539000E020006940F002004FF0E0210861704712
:1053A0002948704729480068000C70472748006862
:1053B000C0F30B0070472548406840F001002349C6
:1053C000486070472148406820F001001F4948604C
:1053D00070471E48406840F002001C494860704712
:1053E0001A48406820F00200184948607047174882
:1053F000406840F004001549486070471348406811
:1054000020F00400114948607047012010490860ED
:10541000704700200E49086070470E4800687047CA
:105420000C48001D006870470A4808300068704743
:10543000F4800020F8800020F0800020003C024032
:1054400020380240EC80002000080701002004E022
:1054500000042742107AFF1F10B50268FE4B9842E5
:105460000BD0B0F1804F08D0FC4B984205D0FC4BDC
:10547000984202D0FB4B984203D122F070024B6855
:105480001A43F54B984214D0B0F1804F11D0F34B32
:1054900098420ED0F24B98420BD0F24B984208D073
:1054A000F14B984205D0F14B984202D0F04B984214
:1054B00003D122F44072CB681A4322F080034C6976
:1054C00043EA040202608B68C3620B688362E24BAA
:1054D000984201D10B6903630123436110BD7047FA
:1054E00010B504460CB9012010BD94F83D0028B950
:1054F000002084F83C002046FFF7F1FF022084F8EA
:105500003D00211D2068FFF7A7FF012084F83D0022
:105510000020E9E7704710B50446022084F83D00FA
:1055200000BF2068006A41F21111084050B920689C
:10553000006A8910084028B92068006820F001003E
:105540002168086000BF2046FFF7E4FF002084F8D0
:105550003D0000BF84F83C0000BF10BD01460220A2
:1055600081F83D000868806800F00702062A05D02F
:105570000868006840F001000B681860012081F89D
:105580003D00002070470146022081F83D0000BF29
:105590000868006A41F21112104050B90868006AA8
:1055A0009210104028B90868006820F001000A68CD
:1055B000106000BF012081F83D00002070470146C7
:1055C0000868C06840F001000B68D860086880680F
:1055D00000F00702062A05D00868006840F00100C4
:1055E0000B6818600020704701460868C06820F00A
:1055F00001000A68D06000BF0868006A41F2111219
:10560000104050B90868006A9210104028B9086824
:10561000006820F001000A68106000BF0020704799
:10562000704770B50446A56B012085F83D002846FB
:10563000FFF7F6FF70BD704770B50446A56B0120FB
:1056400085F83D002846FFF7F6FF70BD704770B53E
:105650000446A56B012085F83D002846FAF798FE20
:1056600070BD2DE9F04104460E46154694F83D0004
:10567000022801D1BDE8F08194F83D00012805D150
:105680000EB905B1F6E7022084F83D007948216A99
:10569000C8637948216A0864AFF27900216AC86456
:1056A000216801F12C022B463146206AFFF7F3F8FE
:1056B00008B10120DEE72068C06840F480702168EE
:1056C000C8602068806800F00707062F05D02068B2
:1056D000006840F00100216808600020CAE710B5AA
:1056E00004462068C06820F480702168C860206A81
:1056F000FFF774F900BF2068006A41F211110840F9
:1057000050B92068006A8910084028B920680068EC
:1057100020F001002168086000BF012084F83D00EE
:10572000002010BD704710B504460CB9012010BD13
:1057300094F83D0028B9002084F83C002046FFF78B
:10574000F1FF022084F83D00211D2068FFF784FE50
:10575000012084F83D000020E9E7704710B50446B9
:10576000022084F83D0000BF2068006A41F2111158
:10577000084050B92068006A8910084028B920689C
:10578000006820F001002168086000BF2046FFF794
:10579000E4FF002084F83D0000BF84F83C0000BF17
:1057A00010BD30B501F01F05012404FA05F3046AA9
:1057B0009C430462046A01F01F0502FA05F52C43BC
:1057C000046230BD70B504460E46012231462068A1
:1057D000FFF7E7FF20492068884201D1012000E05F
:1057E000002028B12068406C40F4004021684864E3
:1057F0002068806800F00705062D05D02068006845
:1058000040F0010021680860002070BD30B50446FA
:105810000D46002229462068FFF7C3FF0E49206885
:10582000884201D1012000E0002090B100BF206833
:10583000006A41F21111084050B92068006A8910CD
:10584000084028B92068406C20F400402168486472
:1058500000BF00BF206811E00000014000040040CC
:1058600000080040000C004000400140004401409E
:10587000004801404F56000839560008006A41F2BE
:105880001111084050B92068006A8910084028B9F1
:105890002068006820F001002168086000BF002037
:1058A00030BD70B504460D4635B1042D0BD0082D22
:1058B00010D00C2D1CD114E02068C06840F002000C
:1058C0002168C86015E02068C06840F004002168C5
:1058D000C8600EE02068C06840F008002168C86019
:1058E00007E02068C06840F010002168C86000E050
:1058F00000BF00BF012229462068FFF752FFF84988
:105900002068884201D1012000E0002028B12068F1
:10591000406C40F40040216848642068806800F0D2
:105920000706062E05D02068006840F001002168B7
:105930000860002070BD30B504460D4635B1042D19
:105940000BD0082D10D00C2D1CD114E02068C0689D
:1059500020F002002168C86015E02068C06820F0CF
:1059600004002168C8600EE02068C06820F00800CC
:105970002168C86007E02068C06820F01000216836
:10598000C86000E000BF00BF002229462068FFF782
:1059900008FFD3492068884201D1012000E000209F
:1059A00090B100BF2068006A41F21111084050B95F
:1059B0002068006A8910084028B92068406C20F4EB
:1059C00000402168486400BF00BF2068006A41F2BF
:1059D0001111084050B92068006A8910084028B9A0
:1059E0002068006820F001002168086000BF0020E6
:1059F00030BD704770B50546AC6B012084F83D00A2
:105A0000606AA84202D10120207710E0A06AA84273
:105A100002D1022020770AE0E06AA84202D10420E5
:105A2000207704E0206BA84201D10820207720468F
:105A3000FFF7DFFF0020207770BD704770B5054687
:105A4000AC6B012084F83D00606AA84202D10120BD
:105A5000207710E0A06AA84202D1022020770AE055
:105A6000E06AA84202D10420207704E0206BA8421B
:105A700001D1082020772046FFF7DFFF00202077A4
:105A800070BD2DE9F04104460E4615461F4694F8B8
:105A90003D00022801D1BDE8F08194F83D000128C5
:105AA00005D10DB907B1F6E7022084F83D0036B103
:105AB000042E22D0082E3ED00C2E79D159E0AFF220
:105AC0008301606AC163AFF2D301606A0164AFF21F
:105AD000AD41606AC164216801F134023B46294648
